{
    "abi": [
        {
            "type": "constructor",
            "inputs": [
                {
                    "name": "_name",
                    "type": "string",
                    "internalType": "string"
                },
                {
                    "name": "_symbol",
                    "type": "string",
                    "internalType": "string"
                },
                {
                    "name": "_initalAmount",
                    "type": "uint256",
                    "internalType": "uint256"
                },
                {
                    "name": "_owner",
                    "type": "address",
                    "internalType": "address"
                }
            ],
            "stateMutability": "nonpayable"
        },
        {
            "type": "function",
            "name": "allowance",
            "inputs": [
                {
                    "name": "owner",
                    "type": "address",
                    "internalType": "address"
                },
                {
                    "name": "spender",
                    "type": "address",
                    "internalType": "address"
                }
            ],
            "outputs": [
                {
                    "name": "",
                    "type": "uint256",
                    "internalType": "uint256"
                }
            ],
            "stateMutability": "view"
        },
        {
            "type": "function",
            "name": "approve",
            "inputs": [
                {
                    "name": "spender",
                    "type": "address",
                    "internalType": "address"
                },
                {
                    "name": "value",
                    "type": "uint256",
                    "internalType": "uint256"
                }
            ],
            "outputs": [
                {
                    "name": "",
                    "type": "bool",
                    "internalType": "bool"
                }
            ],
            "stateMutability": "nonpayable"
        },
        {
            "type": "function",
            "name": "balanceOf",
            "inputs": [
                {
                    "name": "account",
                    "type": "address",
                    "internalType": "address"
                }
            ],
            "outputs": [
                {
                    "name": "",
                    "type": "uint256",
                    "internalType": "uint256"
                }
            ],
            "stateMutability": "view"
        },
        {
            "type": "function",
            "name": "decimals",
            "inputs": [],
            "outputs": [
                {
                    "name": "",
                    "type": "uint8",
                    "internalType": "uint8"
                }
            ],
            "stateMutability": "view"
        },
        {
            "type": "function",
            "name": "name",
            "inputs": [],
            "outputs": [
                {
                    "name": "",
                    "type": "string",
                    "internalType": "string"
                }
            ],
            "stateMutability": "view"
        },
        {
            "type": "function",
            "name": "owner",
            "inputs": [],
            "outputs": [
                {
                    "name": "",
                    "type": "address",
                    "internalType": "address"
                }
            ],
            "stateMutability": "view"
        },
        {
            "type": "function",
            "name": "symbol",
            "inputs": [],
            "outputs": [
                {
                    "name": "",
                    "type": "string",
                    "internalType": "string"
                }
            ],
            "stateMutability": "view"
        },
        {
            "type": "function",
            "name": "totalSupply",
            "inputs": [],
            "outputs": [
                {
                    "name": "",
                    "type": "uint256",
                    "internalType": "uint256"
                }
            ],
            "stateMutability": "view"
        },
        {
            "type": "function",
            "name": "transfer",
            "inputs": [
                {
                    "name": "to",
                    "type": "address",
                    "internalType": "address"
                },
                {
                    "name": "value",
                    "type": "uint256",
                    "internalType": "uint256"
                }
            ],
            "outputs": [
                {
                    "name": "",
                    "type": "bool",
                    "internalType": "bool"
                }
            ],
            "stateMutability": "nonpayable"
        },
        {
            "type": "function",
            "name": "transferFrom",
            "inputs": [
                {
                    "name": "from",
                    "type": "address",
                    "internalType": "address"
                },
                {
                    "name": "to",
                    "type": "address",
                    "internalType": "address"
                },
                {
                    "name": "value",
                    "type": "uint256",
                    "internalType": "uint256"
                }
            ],
            "outputs": [
                {
                    "name": "",
                    "type": "bool",
                    "internalType": "bool"
                }
            ],
            "stateMutability": "nonpayable"
        },
        {
            "type": "event",
            "name": "Approval",
            "inputs": [
                {
                    "name": "owner",
                    "type": "address",
                    "indexed": true,
                    "internalType": "address"
                },
                {
                    "name": "spender",
                    "type": "address",
                    "indexed": true,
                    "internalType": "address"
                },
                {
                    "name": "value",
                    "type": "uint256",
                    "indexed": false,
                    "internalType": "uint256"
                }
            ],
            "anonymous": false
        },
        {
            "type": "event",
            "name": "Transfer",
            "inputs": [
                {
                    "name": "from",
                    "type": "address",
                    "indexed": true,
                    "internalType": "address"
                },
                {
                    "name": "to",
                    "type": "address",
                    "indexed": true,
                    "internalType": "address"
                },
                {
                    "name": "value",
                    "type": "uint256",
                    "indexed": false,
                    "internalType": "uint256"
                }
            ],
            "anonymous": false
        },
        {
            "type": "error",
            "name": "ERC20InsufficientAllowance",
            "inputs": [
                {
                    "name": "spender",
                    "type": "address",
                    "internalType": "address"
                },
                {
                    "name": "allowance",
                    "type": "uint256",
                    "internalType": "uint256"
                },
                {
                    "name": "needed",
                    "type": "uint256",
                    "internalType": "uint256"
                }
            ]
        },
        {
            "type": "error",
            "name": "ERC20InsufficientBalance",
            "inputs": [
                {
                    "name": "sender",
                    "type": "address",
                    "internalType": "address"
                },
                {
                    "name": "balance",
                    "type": "uint256",
                    "internalType": "uint256"
                },
                {
                    "name": "needed",
                    "type": "uint256",
                    "internalType": "uint256"
                }
            ]
        },
        {
            "type": "error",
            "name": "ERC20InvalidApprover",
            "inputs": [
                {
                    "name": "approver",
                    "type": "address",
                    "internalType": "address"
                }
            ]
        },
        {
            "type": "error",
            "name": "ERC20InvalidReceiver",
            "inputs": [
                {
                    "name": "receiver",
                    "type": "address",
                    "internalType": "address"
                }
            ]
        },
        {
            "type": "error",
            "name": "ERC20InvalidSender",
            "inputs": [
                {
                    "name": "sender",
                    "type": "address",
                    "internalType": "address"
                }
            ]
        },
        {
            "type": "error",
            "name": "ERC20InvalidSpender",
            "inputs": [
                {
                    "name": "spender",
                    "type": "address",
                    "internalType": "address"
                }
            ]
        }
    ],
    "bytecode": {
        "object": "0x60806040523480156200001157600080fd5b5060405162000c5038038062000c508339810160408190526200003491620002cf565b83836003620000448382620003f5565b506004620000538282620003f5565b5050506200006881836200009260201b60201c565b600580546001600160a01b0319166001600160a01b039290921691909117905550620004e9915050565b6001600160a01b038216620000c25760405163ec442f0560e01b8152600060048201526024015b60405180910390fd5b620000d060008383620000d4565b5050565b6001600160a01b03831662000103578060026000828254620000f79190620004c1565b90915550620001779050565b6001600160a01b03831660009081526020819052604090205481811015620001585760405163391434e360e21b81526001600160a01b03851660048201526024810182905260448101839052606401620000b9565b6001600160a01b03841660009081526020819052604090209082900390555b6001600160a01b0382166200019557600280548290039055620001b4565b6001600160a01b03821660009081526020819052604090208054820190555b816001600160a01b0316836001600160a01b03167fddf252ad1be2c89b69c2b068fc378daa952ba7f163c4a11628f55a4df523b3ef83604051620001fa91815260200190565b60405180910390a3505050565b634e487b7160e01b600052604160045260246000fd5b600082601f8301126200022f57600080fd5b81516001600160401b03808211156200024c576200024c62000207565b604051601f8301601f19908116603f0116810190828211818310171562000277576200027762000207565b81604052838152602092508660208588010111156200029557600080fd5b600091505b83821015620002b957858201830151818301840152908201906200029a565b6000602085830101528094505050505092915050565b60008060008060808587031215620002e657600080fd5b84516001600160401b0380821115620002fe57600080fd5b6200030c888389016200021d565b955060208701519150808211156200032357600080fd5b5062000332878288016200021d565b60408701516060880151919550935090506001600160a01b03811681146200035957600080fd5b939692955090935050565b600181811c908216806200037957607f821691505b6020821081036200039a57634e487b7160e01b600052602260045260246000fd5b50919050565b601f821115620003f0576000816000526020600020601f850160051c81016020861015620003cb5750805b601f850160051c820191505b81811015620003ec57828155600101620003d7565b5050505b505050565b81516001600160401b0381111562000411576200041162000207565b620004298162000422845462000364565b84620003a0565b602080601f831160018114620004615760008415620004485750858301515b600019600386901b1c1916600185901b178555620003ec565b600085815260208120601f198616915b82811015620004925788860151825594840194600190910190840162000471565b5085821015620004b15787850151600019600388901b60f8161c191681555b5050505050600190811b01905550565b80820180821115620004e357634e487b7160e01b600052601160045260246000fd5b92915050565b61075780620004f96000396000f3fe608060405234801561001057600080fd5b506004361061009e5760003560e01c806370a082311161006657806370a08231146101185780638da5cb5b1461014157806395d89b411461016c578063a9059cbb14610174578063dd62ed3e1461018757600080fd5b806306fdde03146100a3578063095ea7b3146100c157806318160ddd146100e457806323b872dd146100f6578063313ce56714610109575b600080fd5b6100ab6101c0565b6040516100b891906105a0565b60405180910390f35b6100d46100cf36600461060b565b610252565b60405190151581526020016100b8565b6002545b6040519081526020016100b8565b6100d4610104366004610635565b61026c565b604051601281526020016100b8565b6100e8610126366004610671565b6001600160a01b031660009081526020819052604090205490565b600554610154906001600160a01b031681565b6040516001600160a01b0390911681526020016100b8565b6100ab610290565b6100d461018236600461060b565b61029f565b6100e8610195366004610693565b6001600160a01b03918216600090815260016020908152604080832093909416825291909152205490565b6060600380546101cf906106c6565b80601f01602080910402602001604051908101604052809291908181526020018280546101fb906106c6565b80156102485780601f1061021d57610100808354040283529160200191610248565b820191906000526020600020905b81548152906001019060200180831161022b57829003601f168201915b5050505050905090565b6000336102608185856102ad565b60019150505b92915050565b60003361027a8582856102bf565b610285858585610342565b506001949350505050565b6060600480546101cf906106c6565b600033610260818585610342565b6102ba83838360016103a1565b505050565b6001600160a01b03838116600090815260016020908152604080832093861683529290522054600019811461033c578181101561032d57604051637dc7a0d960e11b81526001600160a01b038416600482015260248101829052604481018390526064015b60405180910390fd5b61033c848484840360006103a1565b50505050565b6001600160a01b03831661036c57604051634b637e8f60e11b815260006004820152602401610324565b6001600160a01b0382166103965760405163ec442f0560e01b815260006004820152602401610324565b6102ba838383610476565b6001600160a01b0384166103cb5760405163e602df0560e01b815260006004820152602401610324565b6001600160a01b0383166103f557604051634a1406b160e11b815260006004820152602401610324565b6001600160a01b038085166000908152600160209081526040808320938716835292905220829055801561033c57826001600160a01b0316846001600160a01b03167f8c5be1e5ebec7d5bd14f71427d1e84f3dd0314c0f7b2291e5b200ac8c7c3b9258460405161046891815260200190565b60405180910390a350505050565b6001600160a01b0383166104a15780600260008282546104969190610700565b909155506105139050565b6001600160a01b038316600090815260208190526040902054818110156104f45760405163391434e360e21b81526001600160a01b03851660048201526024810182905260448101839052606401610324565b6001600160a01b03841660009081526020819052604090209082900390555b6001600160a01b03821661052f5760028054829003905561054e565b6001600160a01b03821660009081526020819052604090208054820190555b816001600160a01b0316836001600160a01b03167fddf252ad1be2c89b69c2b068fc378daa952ba7f163c4a11628f55a4df523b3ef8360405161059391815260200190565b60405180910390a3505050565b60006020808352835180602085015260005b818110156105ce578581018301518582016040015282016105b2565b506000604082860101526040601f19601f8301168501019250505092915050565b80356001600160a01b038116811461060657600080fd5b919050565b6000806040838503121561061e57600080fd5b610627836105ef565b946020939093013593505050565b60008060006060848603121561064a57600080fd5b610653846105ef565b9250610661602085016105ef565b9150604084013590509250925092565b60006020828403121561068357600080fd5b61068c826105ef565b9392505050565b600080604083850312156106a657600080fd5b6106af836105ef565b91506106bd602084016105ef565b90509250929050565b600181811c908216806106da57607f821691505b6020821081036106fa57634e487b7160e01b600052602260045260246000fd5b50919050565b8082018082111561026657634e487b7160e01b600052601160045260246000fdfea26469706673582212204bd966ee19dbbd7189d937e557299363dd5a9dc3dace0e4acc4331d135761e5964736f6c63430008180033",
        "linkReferences": {}
    },
    "methodIdentifiers": {
        "allowance(address,address)": "dd62ed3e",
        "approve(address,uint256)": "095ea7b3",
        "balanceOf(address)": "70a08231",
        "decimals()": "313ce567",
        "name()": "06fdde03",
        "owner()": "8da5cb5b",
        "symbol()": "95d89b41",
        "totalSupply()": "18160ddd",
        "transfer(address,uint256)": "a9059cbb",
        "transferFrom(address,address,uint256)": "23b872dd"
    },
    "id": 28
}